{
  "_format": "hh-sol-artifact-1",
  "contractName": "Blog",
  "sourceName": "contracts/Blog.sol",
  "abi": [
    {
      "inputs": [
        {
          "internalType": "string",
          "name": "_name",
          "type": "string"
        }
      ],
      "stateMutability": "nonpayable",
      "type": "constructor"
    },
    {
      "anonymous": false,
      "inputs": [
        {
          "indexed": false,
          "internalType": "uint256",
          "name": "id",
          "type": "uint256"
        },
        {
          "indexed": false,
          "internalType": "string",
          "name": "title",
          "type": "string"
        },
        {
          "indexed": false,
          "internalType": "string",
          "name": "hash",
          "type": "string"
        }
      ],
      "name": "PostCreated",
      "type": "event"
    },
    {
      "anonymous": false,
      "inputs": [
        {
          "indexed": false,
          "internalType": "uint256",
          "name": "id",
          "type": "uint256"
        },
        {
          "indexed": false,
          "internalType": "string",
          "name": "title",
          "type": "string"
        },
        {
          "indexed": false,
          "internalType": "string",
          "name": "hash",
          "type": "string"
        },
        {
          "indexed": false,
          "internalType": "bool",
          "name": "published",
          "type": "bool"
        }
      ],
      "name": "PostUpdated",
      "type": "event"
    },
    {
      "inputs": [
        {
          "internalType": "string",
          "name": "title",
          "type": "string"
        },
        {
          "internalType": "string",
          "name": "hash",
          "type": "string"
        }
      ],
      "name": "createPost",
      "outputs": [],
      "stateMutability": "nonpayable",
      "type": "function"
    },
    {
      "inputs": [
        {
          "internalType": "string",
          "name": "hash",
          "type": "string"
        }
      ],
      "name": "fetchPost",
      "outputs": [
        {
          "components": [
            {
              "internalType": "uint256",
              "name": "id",
              "type": "uint256"
            },
            {
              "internalType": "string",
              "name": "title",
              "type": "string"
            },
            {
              "internalType": "string",
              "name": "content",
              "type": "string"
            },
            {
              "internalType": "bool",
              "name": "published",
              "type": "bool"
            }
          ],
          "internalType": "struct Blog.Post",
          "name": "",
          "type": "tuple"
        }
      ],
      "stateMutability": "view",
      "type": "function"
    },
    {
      "inputs": [],
      "name": "fetchPosts",
      "outputs": [
        {
          "components": [
            {
              "internalType": "uint256",
              "name": "id",
              "type": "uint256"
            },
            {
              "internalType": "string",
              "name": "title",
              "type": "string"
            },
            {
              "internalType": "string",
              "name": "content",
              "type": "string"
            },
            {
              "internalType": "bool",
              "name": "published",
              "type": "bool"
            }
          ],
          "internalType": "struct Blog.Post[]",
          "name": "",
          "type": "tuple[]"
        }
      ],
      "stateMutability": "view",
      "type": "function"
    },
    {
      "inputs": [],
      "name": "name",
      "outputs": [
        {
          "internalType": "string",
          "name": "",
          "type": "string"
        }
      ],
      "stateMutability": "view",
      "type": "function"
    },
    {
      "inputs": [],
      "name": "owner",
      "outputs": [
        {
          "internalType": "address",
          "name": "",
          "type": "address"
        }
      ],
      "stateMutability": "view",
      "type": "function"
    },
    {
      "inputs": [
        {
          "internalType": "address",
          "name": "newOwner",
          "type": "address"
        }
      ],
      "name": "transferOwnership",
      "outputs": [],
      "stateMutability": "nonpayable",
      "type": "function"
    },
    {
      "inputs": [
        {
          "internalType": "string",
          "name": "_name",
          "type": "string"
        }
      ],
      "name": "updateName",
      "outputs": [],
      "stateMutability": "nonpayable",
      "type": "function"
    },
    {
      "inputs": [
        {
          "internalType": "uint256",
          "name": "postId",
          "type": "uint256"
        },
        {
          "internalType": "string",
          "name": "title",
          "type": "string"
        },
        {
          "internalType": "string",
          "name": "hash",
          "type": "string"
        },
        {
          "internalType": "bool",
          "name": "published",
          "type": "bool"
        }
      ],
      "name": "updatePost",
      "outputs": [],
      "stateMutability": "nonpayable",
      "type": "function"
    }
  ],
  "bytecode": "0x60806040523480156200001157600080fd5b5060405162001be338038062001be38339818101604052810190620000379190620002d5565b620000836040518060400160405280601981526020017f4465706c6f79696e6720426c6f672077697468206e616d653a0000000000000081525082620000e460201b62000b401760201c565b80600090805190602001906200009b929190620001b3565b5033600160006101000a81548173ffffffffffffffffffffffffffffffffffffffff021916908373ffffffffffffffffffffffffffffffffffffffff1602179055505062000522565b620001868282604051602401620000fd9291906200035b565b6040516020818303038152906040527f4b5c4277000000000000000000000000000000000000000000000000000000007bffffffffffffffffffffffffffffffffffffffffffffffffffffffff19166020820180517bffffffffffffffffffffffffffffffffffffffffffffffffffffffff83818316178352505050506200018a60201b60201c565b5050565b60008151905060006a636f6e736f6c652e6c6f679050602083016000808483855afa5050505050565b828054620001c19062000447565b90600052602060002090601f016020900481019282620001e5576000855562000231565b82601f106200020057805160ff191683800117855562000231565b8280016001018555821562000231579182015b828111156200023057825182559160200191906001019062000213565b5b50905062000240919062000244565b5090565b5b808211156200025f57600081600090555060010162000245565b5090565b60006200027a6200027484620003bf565b62000396565b9050828152602081018484840111156200029357600080fd5b620002a084828562000411565b509392505050565b600082601f830112620002ba57600080fd5b8151620002cc84826020860162000263565b91505092915050565b600060208284031215620002e857600080fd5b600082015167ffffffffffffffff8111156200030357600080fd5b6200031184828501620002a8565b91505092915050565b60006200032782620003f5565b62000333818562000400565b93506200034581856020860162000411565b620003508162000511565b840191505092915050565b600060408201905081810360008301526200037781856200031a565b905081810360208301526200038d81846200031a565b90509392505050565b6000620003a2620003b5565b9050620003b082826200047d565b919050565b6000604051905090565b600067ffffffffffffffff821115620003dd57620003dc620004e2565b5b620003e88262000511565b9050602081019050919050565b600081519050919050565b600082825260208201905092915050565b60005b838110156200043157808201518184015260208101905062000414565b8381111562000441576000848401525b50505050565b600060028204905060018216806200046057607f821691505b60208210811415620004775762000476620004b3565b5b50919050565b620004888262000511565b810181811067ffffffffffffffff82111715620004aa57620004a9620004e2565b5b80604052505050565b7f4e487b7100000000000000000000000000000000000000000000000000000000600052602260045260246000fd5b7f4e487b7100000000000000000000000000000000000000000000000000000000600052604160045260246000fd5b6000601f19601f8301169050919050565b6116b180620005326000396000f3fe608060405234801561001057600080fd5b50600436106100885760003560e01c80638da5cb5b1161005b5780638da5cb5b14610113578063abaddd7f14610131578063cd349fe91461014f578063f2fde38b1461016b57610088565b806306fdde031461008d578063392338f5146100ab57806344828659146100c757806384da92a7146100f7575b600080fd5b610095610187565b6040516100a29190611232565b60405180910390f35b6100c560048036038101906100c09190610e94565b610215565b005b6100e160048036038101906100dc9190610e53565b6103d0565b6040516100ee919061128b565b60405180910390f35b610111600480360381019061010c9190610e53565b610551565b005b61011b6105c5565b60405161012891906111f5565b60405180910390f35b6101396105eb565b6040516101469190611210565b60405180910390f35b61016960048036038101906101649190610f00565b610874565b005b61018560048036038101906101809190610e2a565b610aa2565b005b60008054610194906114ec565b80601f01602080910402602001604051908101604052809291908181526020018280546101c0906114ec565b801561020d5780601f106101e25761010080835404028352916020019161020d565b820191906000526020600020905b8154815290600101906020018083116101f057829003601f168201915b505050505081565b600160009054906101000a900473ffffffffffffffffffffffffffffffffffffffff1673ffffffffffffffffffffffffffffffffffffffff163373ffffffffffffffffffffffffffffffffffffffff161461026f57600080fd5b6102796002610bdc565b60006102856002610bf2565b90506000600360008381526020019081526020016000209050818160000181905550838160010190805190602001906102bf929190610c29565b5060018160030160006101000a81548160ff021916908315150217905550828160020190805190602001906102f5929190610c29565b508060048460405161030791906111de565b9081526020016040518091039020600082015481600001556001820181600101908054610333906114ec565b61033e929190610caf565b506002820181600201908054610353906114ec565b61035e929190610caf565b506003820160009054906101000a900460ff168160030160006101000a81548160ff0219169083151502179055509050507fe6851f0b99a9d86e5d68a97f65218980851216ce297f789c6b6b7e82ca1d90c88285856040516103c2939291906112ad565b60405180910390a150505050565b6103d8610d3c565b6004826040516103e891906111de565b90815260200160405180910390206040518060800160405290816000820154815260200160018201805461041b906114ec565b80601f0160208091040260200160405190810160405280929190818152602001828054610447906114ec565b80156104945780601f1061046957610100808354040283529160200191610494565b820191906000526020600020905b81548152906001019060200180831161047757829003601f168201915b505050505081526020016002820180546104ad906114ec565b80601f01602080910402602001604051908101604052809291908181526020018280546104d9906114ec565b80156105265780601f106104fb57610100808354040283529160200191610526565b820191906000526020600020905b81548152906001019060200180831161050957829003601f168201915b505050505081526020016003820160009054906101000a900460ff1615151515815250509050919050565b600160009054906101000a900473ffffffffffffffffffffffffffffffffffffffff1673ffffffffffffffffffffffffffffffffffffffff163373ffffffffffffffffffffffffffffffffffffffff16146105ab57600080fd5b80600090805190602001906105c1929190610c29565b5050565b600160009054906101000a900473ffffffffffffffffffffffffffffffffffffffff1681565b606060006105f96002610bf2565b90506000808267ffffffffffffffff81111561063e577f4e487b7100000000000000000000000000000000000000000000000000000000600052604160045260246000fd5b60405190808252806020026020018201604052801561067757816020015b610664610d3c565b81526020019060019003908161065c5790505b50905060005b8381101561086a576000600182610694919061140c565b9050600060036000838152602001908152602001600020905080604051806080016040529081600082015481526020016001820180546106d3906114ec565b80601f01602080910402602001604051908101604052809291908181526020018280546106ff906114ec565b801561074c5780601f106107215761010080835404028352916020019161074c565b820191906000526020600020905b81548152906001019060200180831161072f57829003601f168201915b50505050508152602001600282018054610765906114ec565b80601f0160208091040260200160405190810160405280929190818152602001828054610791906114ec565b80156107de5780601f106107b3576101008083540402835291602001916107de565b820191906000526020600020905b8154815290600101906020018083116107c157829003601f168201915b505050505081526020016003820160009054906101000a900460ff16151515158152505084868151811061083b577f4e487b7100000000000000000000000000000000000000000000000000000000600052603260045260246000fd5b6020026020010181905250600185610853919061140c565b9450505080806108629061154f565b91505061067d565b5080935050505090565b600160009054906101000a900473ffffffffffffffffffffffffffffffffffffffff1673ffffffffffffffffffffffffffffffffffffffff163373ffffffffffffffffffffffffffffffffffffffff16146108ce57600080fd5b6000600360008681526020019081526020016000209050838160010190805190602001906108fd929190610c29565b50818160030160006101000a81548160ff02191690831515021790555082816002019080519060200190610932929190610c29565b508060036000878152602001908152602001600020600082015481600001556001820181600101908054610965906114ec565b610970929190610caf565b506002820181600201908054610985906114ec565b610990929190610caf565b506003820160009054906101000a900460ff168160030160006101000a81548160ff021916908315150217905550905050806004846040516109d291906111de565b90815260200160405180910390206000820154816000015560018201816001019080546109fe906114ec565b610a09929190610caf565b506002820181600201908054610a1e906114ec565b610a29929190610caf565b506003820160009054906101000a900460ff168160030160006101000a81548160ff0219169083151502179055509050507f9f8eb93fc073102bbd3072664634ab200707a4f11d94aace9cc8d0e4d019eff58160000154858585604051610a9394939291906112f2565b60405180910390a15050505050565b600160009054906101000a900473ffffffffffffffffffffffffffffffffffffffff1673ffffffffffffffffffffffffffffffffffffffff163373ffffffffffffffffffffffffffffffffffffffff1614610afc57600080fd5b80600160006101000a81548173ffffffffffffffffffffffffffffffffffffffff021916908373ffffffffffffffffffffffffffffffffffffffff16021790555050565b610bd88282604051602401610b56929190611254565b6040516020818303038152906040527f4b5c4277000000000000000000000000000000000000000000000000000000007bffffffffffffffffffffffffffffffffffffffffffffffffffffffff19166020820180517bffffffffffffffffffffffffffffffffffffffffffffffffffffffff8381831617835250505050610c00565b5050565b6001816000016000828254019250508190555050565b600081600001549050919050565b60008151905060006a636f6e736f6c652e6c6f679050602083016000808483855afa5050505050565b828054610c35906114ec565b90600052602060002090601f016020900481019282610c575760008555610c9e565b82601f10610c7057805160ff1916838001178555610c9e565b82800160010185558215610c9e579182015b82811115610c9d578251825591602001919060010190610c82565b5b509050610cab9190610d66565b5090565b828054610cbb906114ec565b90600052602060002090601f016020900481019282610cdd5760008555610d2b565b82601f10610cee5780548555610d2b565b82800160010185558215610d2b57600052602060002091601f016020900482015b82811115610d2a578254825591600101919060010190610d0f565b5b509050610d389190610d66565b5090565b60405180608001604052806000815260200160608152602001606081526020016000151581525090565b5b80821115610d7f576000816000905550600101610d67565b5090565b6000610d96610d918461136a565b611345565b905082815260208101848484011115610dae57600080fd5b610db98482856114aa565b509392505050565b600081359050610dd081611636565b92915050565b600081359050610de58161164d565b92915050565b600082601f830112610dfc57600080fd5b8135610e0c848260208601610d83565b91505092915050565b600081359050610e2481611664565b92915050565b600060208284031215610e3c57600080fd5b6000610e4a84828501610dc1565b91505092915050565b600060208284031215610e6557600080fd5b600082013567ffffffffffffffff811115610e7f57600080fd5b610e8b84828501610deb565b91505092915050565b60008060408385031215610ea757600080fd5b600083013567ffffffffffffffff811115610ec157600080fd5b610ecd85828601610deb565b925050602083013567ffffffffffffffff811115610eea57600080fd5b610ef685828601610deb565b9150509250929050565b60008060008060808587031215610f1657600080fd5b6000610f2487828801610e15565b945050602085013567ffffffffffffffff811115610f4157600080fd5b610f4d87828801610deb565b935050604085013567ffffffffffffffff811115610f6a57600080fd5b610f7687828801610deb565b9250506060610f8787828801610dd6565b91505092959194509250565b6000610f9f83836110ec565b905092915050565b610fb081611462565b82525050565b6000610fc1826113ab565b610fcb81856113ce565b935083602082028501610fdd8561139b565b8060005b858110156110195784840389528151610ffa8582610f93565b9450611005836113c1565b925060208a01995050600181019050610fe1565b50829750879550505050505092915050565b61103481611474565b82525050565b61104381611474565b82525050565b6000611054826113b6565b61105e81856113df565b935061106e8185602086016114b9565b61107781611625565b840191505092915050565b600061108d826113b6565b61109781856113f0565b93506110a78185602086016114b9565b6110b081611625565b840191505092915050565b60006110c6826113b6565b6110d08185611401565b93506110e08185602086016114b9565b80840191505092915050565b600060808301600083015161110460008601826111c0565b506020830151848203602086015261111c8282611049565b915050604083015184820360408601526111368282611049565b915050606083015161114b606086018261102b565b508091505092915050565b600060808301600083015161116e60008601826111c0565b50602083015184820360208601526111868282611049565b915050604083015184820360408601526111a08282611049565b91505060608301516111b5606086018261102b565b508091505092915050565b6111c9816114a0565b82525050565b6111d8816114a0565b82525050565b60006111ea82846110bb565b915081905092915050565b600060208201905061120a6000830184610fa7565b92915050565b6000602082019050818103600083015261122a8184610fb6565b905092915050565b6000602082019050818103600083015261124c8184611082565b905092915050565b6000604082019050818103600083015261126e8185611082565b905081810360208301526112828184611082565b90509392505050565b600060208201905081810360008301526112a58184611156565b905092915050565b60006060820190506112c260008301866111cf565b81810360208301526112d48185611082565b905081810360408301526112e88184611082565b9050949350505050565b600060808201905061130760008301876111cf565b81810360208301526113198186611082565b9050818103604083015261132d8185611082565b905061133c606083018461103a565b95945050505050565b600061134f611360565b905061135b828261151e565b919050565b6000604051905090565b600067ffffffffffffffff821115611385576113846115f6565b5b61138e82611625565b9050602081019050919050565b6000819050602082019050919050565b600081519050919050565b600081519050919050565b6000602082019050919050565b600082825260208201905092915050565b600082825260208201905092915050565b600082825260208201905092915050565b600081905092915050565b6000611417826114a0565b9150611422836114a0565b9250827fffffffffffffffffffffffffffffffffffffffffffffffffffffffffffffffff0382111561145757611456611598565b5b828201905092915050565b600061146d82611480565b9050919050565b60008115159050919050565b600073ffffffffffffffffffffffffffffffffffffffff82169050919050565b6000819050919050565b82818337600083830152505050565b60005b838110156114d75780820151818401526020810190506114bc565b838111156114e6576000848401525b50505050565b6000600282049050600182168061150457607f821691505b60208210811415611518576115176115c7565b5b50919050565b61152782611625565b810181811067ffffffffffffffff82111715611546576115456115f6565b5b80604052505050565b600061155a826114a0565b91507fffffffffffffffffffffffffffffffffffffffffffffffffffffffffffffffff82141561158d5761158c611598565b5b600182019050919050565b7f4e487b7100000000000000000000000000000000000000000000000000000000600052601160045260246000fd5b7f4e487b7100000000000000000000000000000000000000000000000000000000600052602260045260246000fd5b7f4e487b7100000000000000000000000000000000000000000000000000000000600052604160045260246000fd5b6000601f19601f8301169050919050565b61163f81611462565b811461164a57600080fd5b50565b61165681611474565b811461166157600080fd5b50565b61166d816114a0565b811461167857600080fd5b5056fea2646970667358221220a273ddecb91524c58afbb7564ba815c3547e28a9ccc00c33d2c8d2e12d90231664736f6c63430008040033",
  "linkReferences": {},
  "deployedLinkReferences": {}
}